:1000000019C0C7C232C031C030C0D2C22EC02DC04C
:100010002CC02BC02AC029C028C027C026C025C09C
:1000200024C023C022C021C020C01FC01EC01DC0CC
:100030001CC01BC011241FBECFEFD2E0DEBFCDBF5E
:1000400011E0A0E0B1E0ECEAF8E002C005900D920A
:10005000A830B107D9F721E0A8E0B1E001C01D92B6
:10006000AD31B207E1F74ED01FC4CACF40910601AF
:10007000509107014A3079F45A3069F4C1D360E7EE
:1000800077E126D390930C0180930B011092060127
:1000900010920701089580910B0190910C01541763
:1000A000D8F0411103C02CE231E002C028E532E073
:1000B00030931A01209319012817390708F402C058
:1000C00088519C4F821B930B90930C0180930B01E2
:1000D0004F5F4093060108959C01285A3D4F2137F8
:1000E00047E1340728F430930C0120930B0106C03C
:1000F0008851954190930C0180930B015F5F509361
:10010000070108958AB180668AB9239A5E982B9870
:100110005D9882E090E083D3909305018093040181
:100120008091040190910501893E934030F088EE62
:1001300093E0909305018093040184E090E06FD3F5
:1001400063D35ED3BC0184E090E06DD38FDF8091F8
:100150000B0190910C0190930E0180930D018BB1D6
:1001600087608BB980916900826080936900E89A0A
:100170008091680084608093680080916D00836046
:1001800080936D00789409EE13E089EEC82E83E029
:10019000D82EE12CF12CC8EED3E032C180910A01B7
:1001A000813009F432C162DF10C180910A018130CF
:1001B00009F417C1A0900401B0900501CF01B80166
:1001C00073D29C0170931C0160931B016230710516
:1001D000E1F140F46115710579F06130710509F0C4
:1001E00080C019C06430710509F450C0C8F1653091
:1001F000710509F076C05CC0B0921001A0920F01A9
:100200009F01D5019AD2A701960175D230931201B0
:100210002093110115C0D701C601821B930BA109C0
:10022000B1099C01AD01D50194D2A701960163D219
:100230003093100120930F01B0921201A09211018E
:1002400010921401109213014CC0109210011092E0
:100250000F01B0921201A0921101D5016ED23AC0E5
:100260001092100110920F01D701C601821B930B4F
:10027000A109B1099C01AD01D5016BD2A70196017D
:100280003AD230931201209311010DC0D50155D2FD
:10029000A701960130D23093100120930F011092E4
:1002A000120110921101B0921401A092130119C011
:1002B000B0921001A0920F01109212011092110140
:1002C000D701C601821B930BA109B1099C01AD01A5
:1002D000D5013FD2A70196010ED23093140120938D
:1002E000130110921601109215013AC05E9A2B9AD2
:1002F0005D9A109218011092170121C020910F01F0
:10030000309110018217930709F45E982091110132
:10031000309112018217930709F42B982091130151
:10032000309114018217930709F45D9880911701A9
:100330009091180101969093180180931701809174
:10034000170190911801883EA3E09A07B8F28091B6
:100350001501909116010196909316018093150155
:100360008091150190911601C29708F4BFCF80913A
:100370000D0190910E0120910B0130910C01AC0107
:10038000421B530B4934B4EF5B073CF0483B5B40E6
:1003900024F48217930730F40EC08217930738F4C1
:1003A000009711F001970BC080E797E108C08037F4
:1003B000A7E19A0711F0019602C080E090E09093C7
:1003C0000E0180930D0110920801E0910D01F09152
:1003D0000E0180910B0190910C01E817F90709F0CB
:1003E000E4CE80910901813059F4F89460910401C0
:1003F0007091050182E090E016D210920901789484
:1004000080910A01813009F0C9CE80910F0190914D
:100410001001893E934020F0D0931001C0930F014A
:100420008091110190911201893E934020F0D09368
:100430001201C09311018091130190911401893E22
:10044000934008F472C0D0931401C09313016DC09F
:1004500010921601109215013AC05E9A2B9A5D9A7D
:10046000109218011092170121C020910F013091B4
:1004700010018217930709F45E98209111013091C1
:1004800012018217930709F42B98209113013091E0
:1004900014018217930709F45D98809117019091D8
:1004A000180101969093180180931701809117010C
:1004B00090911801883EA3E09A07B8F28091150147
:1004C00090911601019690931601809315018091E9
:1004D000150190911601892B09F4BFCF80910F016E
:1004E00090911001883EB3E09B0728F40196909309
:1004F000100180930F018091110190911201883EAB
:1005000023E0920728F40196909312018093110141
:100510008091130190911401883E63E0960728F4BE
:10052000019690931401809313018091130190918F
:100530001401883E934008F48BCF80910F01909175
:100540001001883E934008F483CF8091110190916F
:100550001201883E934008F47BCF10920A015E9A04
:100560002B9A5D9A06C08FE097E20197F1F700C0E1
:10057000000080910A018130B1F79FEFA9E6B8E150
:100580009150A040B040E1F700C0000010920A0175
:1005900037CF1F920F920FB60F9211248F9381E0E5
:1005A00080930A018F910F900FBE0F901F901895A6
:1005B0001F920F920FB60F9211242F938F939F9338
:1005C00080910801813009F467C0499B31C0809156
:1005D0000401909105018536910538F08091040160
:1005E00090910501845691091AC08091040190915F
:1005F0000501459730F080910401909105014E97D7
:100600000EC08091040190910501019731F0809115
:10061000040190910501019702C081E090E0909360
:1006200005018093040181E0809309018093080112
:10063000489B32C08091040190910501449730F4A9
:10064000809104019091050101961DC080910401E3
:10065000909105018436910530F4809104019091C8
:1006600005014E9610C08091040190910501883ECD
:10067000934038F480910401909105018C599F4F6B
:1006800002C088EE93E0909305018093040181E01D
:1006900080930901809308019F918F912F910F9072
:1006A0000FBE0F901F901895AA1BBB1B51E107C0EE
:1006B000AA1FBB1FA617B70710F0A61BB70B881FF2
:1006C000991F5A95A9F780959095BC01CD01089581
:1006D00097FB072E16F4009406D077FD08D0E4DFD0
:1006E00007FC05D03EF4909581959F4F0895709535
:1006F00061957F4F0895A1E21A2EAA1BBB1BFD0135
:100700000DC0AA1FBB1FEE1FFF1FA217B307E407F0
:10071000F50720F0A21BB30BE40BF50B661F771F48
:10072000881F991F1A9469F7609570958095909528
:100730009B01AC01BD01CF010895A29FB001B39F01
:10074000C001A39F01D0B29F700D811D1124911D86
:100750000895F3DFA59F900DB49F900DA49F800D89
:10076000911D112408958F929F92AF92BF92CF92C4
:10077000DF92EF92FF92CF93DF93EC016881798152
:100780008A819B81611571058105910521F464E2DF
:1007900079ED8BE597E02DE133EF41E050E063D058
:1007A00049015A019B01AC01A7EAB1E4D2DF6B0118
:1007B0007C01ACEEB4EFA501940172D0C60ED71E39
:1007C000E81EF91EF7FE06C081E0C81AD108E1084C
:1007D00080E8F80AC882D982EA82FB82E894D7F8D6
:1007E000EE24FF24C601DF91CF91FF90EF90DF90C0
:1007F000CF90BF90AF909F908F900895B4DF0895F1
:1008000080E091E0B0DF0895A0E0B0E080930001C7
:1008100090930101A0930201B09303010895A8E110
:10082000B0E042E005C011D0272F10C0DC01862FB8
:10083000E82FF999FECF1FBA05C0E1BDF89AE395FC
:1008400000B40D924150C8F70895262FF999FECFB4
:100850001FBA1FBA81BD20BD0FB6F894FA9AF99A53
:100860000FBE01960895052E97FB16F4009406D04E
:1008700057FD0CD040DF07FC09D07EF490958095A1
:10088000709561957F4F8F4F9F4F0895509540957C
:10089000309521953F4F4F4F5F4F0895B7FF59CF88
:0C08A00058DF821B930B0895F894FFCFE3
:0808AC0001000000E8030A0A44
:00000001FF
