:1000000019C040C34EC331C030C060C32EC02DC024
:100010002CC02BC02AC029C028C027C026C025C09C
:1000200024C023C022C021C020C01FC01EC01DC0CC
:100030001CC01BC011241FBECFEFD2E0DEBFCDBF5E
:1000400011E0A0E0B1E0E2E5F9E002C005900D9218
:10005000A830B107D9F721E0A8E0B1E001C01D92B6
:10006000A032B207E1F70CD172C4CACFCF92DF92AF
:10007000EF92FF92CF93DF93FC01EB0169EE73E007
:100080005ED39C0170931F0160931E016230710565
:1000900009F445C040F46115710581F061307105C6
:1000A00009F09BC01CC06430710509F463C008F4FA
:1000B00045C06530710509F090C070C0D093130140
:1000C000C09312019E01DF0183D329EE33E040E0AB
:1000D00050E05CD330931501209314011BC049EE0E
:1000E000C42E43E0D42EE12CF12CD701C601821B93
:1000F000930BA109B1099C01AD01DE0175D3A701E4
:10010000960144D33093130120931201D09315012B
:10011000C093140110921701109216015EC0109244
:10012000130110921201D0931501C0931401DE0146
:100130004FD329EE33E040E050E04AC01092130163
:100140001092120199EEC92E93E0D92EE12CF12CD8
:10015000D701C601821B930BA109B1099C01AD0116
:10016000DE0142D3A701960111D3309315012093EC
:1001700014010FC0DE012CD329EE33E040E050E043
:1001800005D33093130120931201109215011092A0
:100190001401D0931701C09316011FC0D09313010F
:1001A000C0931201109215011092140189EEC82E0D
:1001B00083E0D82EE12CF12CD701C601821B930BD2
:1001C000A109B1099C01AD01DE010ED3A701960181
:1001D000DDD23093170120931601DF91CF91FF906C
:1001E000EF90DF90CF900895409106015091070164
:1001F0004A3079F45A3069F44ED360E777E1B3D2EC
:1002000090930D0180930C0110920601109207014A
:10021000089580910C0190910D015417D8F041116F
:1002200003C02CE231E002C028E532E030931D012A
:1002300020931C012817390708F402C088519C4FED
:10024000821B930B90930D0180930C014F5F4093A1
:10025000060108959C01285A3D4F213747E1340794
:1002600028F430930D0120930C0106C0885195416C
:1002700090930D0180930C015F5F509307010895E7
:100280008AB180668AB9239A5E982B985D9882E03D
:1002900090E018D3909305018093040180910401AC
:1002A00090910501893E934030F088EE93E0909361
:1002B00005018093040186E090E0FCD2809309015F
:1002C00080910901882331F080910901813011F07A
:1002D000109209018091090180930B0184E090E064
:1002E000F1D2DDD2D8D2BC0184E090E0FDD27CDF37
:1002F00080910C0190910D0190930F0180930E015C
:100300008BB18F608BB9809169008A60809369009E
:100310008DB383608DBB809168008460809368009A
:1003200080916D00836080936D00789452E3E52E98
:10033000F12C00E717E1C8EED3E0DBC080910A01A1
:10034000813009F4DBC050DFA8C020910A012130C0
:1003500009F4AFC0209109012130E9F49CD2B70122
:1003600002D22091040130910501273B334028F44B
:10037000209104013091050102C026EB33E0B90160
:10038000680F791F709311016093100180910E0125
:1003900090910F0104C0609104017091050166DE27
:1003A00010921901109218013AC05E9A2B9A5D9A28
:1003B00010921B0110921A0121C02091120130915C
:1003C00013018217930709F45E982091140130916C
:1003D00015018217930709F42B982091160130918B
:1003E00017018217930709F45D9880911A01909183
:1003F0001B01019690931B0180931A0180911A01B1
:1004000090911B01883E53E09507B8F28091180146
:100410009091190101969093190180931801809190
:10042000180190911901C29708F4BFCF80910E0175
:1004300090910F0120910C0130910D0182179307CB
:1004400058F4281B390B293B3B4008F01AC0803771
:1004500057E19507A1F40EC028173907F0F4AC0155
:10046000421B530B9A01293B3B4058F0803727E150
:10047000920729F410920F0110920E010EC00196FE
:1004800008C0009729F410930F0100930E0105C0D6
:10049000019790930F0180930E0180910E0190912E
:1004A0000F0120910C0130910D018217930709F083
:1004B0004CCF80910801813059F4F8946091040187
:1004C0007091050182E090E00FD2109208017894BB
:1004D0008091090190910B01981759F0F89460915F
:1004E000090186E090E0F2D18091090180930B012F
:1004F000789480910A01813009F020CF8091120117
:1005000090911301893E934020F0D0931301C09342
:1005100012018091140190911501893E934020F0C1
:10052000D0931501C0931401809116019091170189
:10053000893E934008F472C0D0931701C09316010E
:100540006DC010921901109218013AC05E9A2B9A50
:100550005D9A10921B0110921A0121C02091120184
:10056000309113018217930709F45E9820911401CA
:10057000309115018217930709F42B9820911601E9
:10058000309117018217930709F45D9880911A0141
:1005900090911B01019690931B0180931A01809109
:1005A0001A0190911B01883E43E09407B8F28091B4
:1005B00018019091190101969093190180931801E7
:1005C0008091180190911901892B09F4BFCF809176
:1005D000120190911301883E53E0950728F401968B
:1005E0009093130180931201809114019091150151
:1005F000883E23E0920728F401969093150180939A
:1006000014018091160190911701883E43E09407F0
:1006100028F401969093170180931601809116019A
:1006200090911701883E934008F48BCF809112017E
:1006300090911301883E934008F483CF8091140178
:1006400090911501883E934008F47BCF10920A01E7
:100650005E9A2B9A5D9A06C08FE097E20197F1F7B8
:1006600000C0000080910A018130B1F79FEF29E6B8
:1006700048E1915020404040E1F700C00000109256
:100680000A0137CF1F920F920FB60F9211248F934A
:1006900081E080930A018F910F900FBE0F901F9001
:1006A00018951F920F920FB60F9211248F939F935C
:1006B0009091090181E0911180E0809309019F915F
:1006C0008F910F900FBE0F901F9018951F920F9251
:1006D0000FB60F9211242F938F939F93499B12C0B3
:1006E0008091040190910501059760F080910401CB
:1006F000909105010597909305018093040181E095
:1007000080930801489B13C08091040190910501DA
:10071000843E934060F48091040190910501059618
:10072000909305018093040181E0809308019F91DB
:100730008F912F910F900FBE0F901F901895AA1BAD
:10074000BB1B51E107C0AA1FBB1FA617B70710F0BC
:10075000A61BB70B881F991F5A95A9F780959095EE
:10076000BC01CD01089597FB072E16F4009406D026
:1007700077FD08D0E4DF07FC05D03EF49095819525
:100780009F4F0895709561957F4F0895A1E21A2EAD
:10079000AA1BBB1BFD010DC0AA1FBB1FEE1FFF1F25
:1007A000A217B307E407F50720F0A21BB30BE40B75
:1007B000F50B661F771F881F991F1A9469F76095BC
:1007C0007095809590959B01AC01BD01CF01089576
:1007D000A29FB001B39FC001A39F01D0B29F700D33
:1007E000811D1124911D0895F3DFA59F900DB49FE5
:1007F000900DA49F800D911D112408958F929F92BA
:10080000AF92BF92CF92DF92EF92FF92CF93DF939E
:10081000EC01688179818A819B816115710581056F
:10082000910521F464E279ED8BE597E02DE133EF5A
:1008300041E050E06BD049015A019B01AC01A7EAAD
:10084000B1E4D2DF6B017C01ACEEB4EFA501940101
:100850007AD0C60ED71EE81EF91EF7FE06C081E04C
:10086000C81AD108E10880E8F80AC882D982EA8269
:10087000FB82E894D7F8EE24FF24C601DF91CF91E4
:10088000FF90EF90DF90CF90BF90AF909F908F90B0
:100890000895B4DF089580E091E0B0DF0895A0E00E
:1008A000B0E08093000190930101A0930201B09306
:1008B00003010895F999FECF1FBA81BDF89A9927CF
:1008C00080B50895A8E1B0E042E013C0262FF99961
:1008D000FECF1FBA1FBA81BD20BD0FB6F894FA9A99
:1008E000F99A0FBE01960895F1DF272FF0CFDC01B2
:1008F000862FE82FF999FECF1FBA05C0E1BDF89AFF
:10090000E39500B40D924150C8F70895052E97FB6A
:1009100016F4009406D057FD0CD038DF07FC09D040
:100920007EF490958095709561957F4F8F4F9F4F86
:10093000089550954095309521953F4F4F4F5F4F0B
:100940000895B7FF51CF50DF821B930B0895F894A1
:02095000FFCFD7
:0809520001000000E8030A0A9D
:00000001FF
